{
  "contractName": "MCScontract",
  "abi": [
    {
      "inputs": [
        {
          "internalType": "address",
          "name": "userRegistrationAddress",
          "type": "address"
        },
        {
          "internalType": "address",
          "name": "taskCreationAddress",
          "type": "address"
        }
      ],
      "stateMutability": "nonpayable",
      "type": "constructor"
    },
    {
      "anonymous": false,
      "inputs": [
        {
          "indexed": true,
          "internalType": "uint256",
          "name": "dataID",
          "type": "uint256"
        },
        {
          "indexed": true,
          "internalType": "address",
          "name": "workerAddress",
          "type": "address"
        },
        {
          "indexed": true,
          "internalType": "address",
          "name": "requesterAddress",
          "type": "address"
        },
        {
          "indexed": false,
          "internalType": "uint256",
          "name": "taskID",
          "type": "uint256"
        },
        {
          "indexed": false,
          "internalType": "string",
          "name": "dataType",
          "type": "string"
        },
        {
          "indexed": false,
          "internalType": "uint256",
          "name": "depositDate",
          "type": "uint256"
        },
        {
          "indexed": false,
          "internalType": "string",
          "name": "dataContent",
          "type": "string"
        }
      ],
      "name": "DataUploaded",
      "type": "event"
    },
    {
      "inputs": [
        {
          "internalType": "uint256",
          "name": "",
          "type": "uint256"
        }
      ],
      "name": "data",
      "outputs": [
        {
          "internalType": "address",
          "name": "workerAddress",
          "type": "address"
        },
        {
          "internalType": "address",
          "name": "requesterAddress",
          "type": "address"
        },
        {
          "internalType": "uint256",
          "name": "taskID",
          "type": "uint256"
        },
        {
          "internalType": "string",
          "name": "dataType",
          "type": "string"
        },
        {
          "internalType": "uint256",
          "name": "depositDate",
          "type": "uint256"
        },
        {
          "internalType": "string",
          "name": "dataContent",
          "type": "string"
        }
      ],
      "stateMutability": "view",
      "type": "function",
      "constant": true
    },
    {
      "inputs": [],
      "name": "taskCreationContract",
      "outputs": [
        {
          "internalType": "contract TaskCreation",
          "name": "",
          "type": "address"
        }
      ],
      "stateMutability": "view",
      "type": "function",
      "constant": true
    },
    {
      "inputs": [],
      "name": "userRegistrationContract",
      "outputs": [
        {
          "internalType": "contract UserRegistrationContract",
          "name": "",
          "type": "address"
        }
      ],
      "stateMutability": "view",
      "type": "function",
      "constant": true
    },
    {
      "inputs": [
        {
          "internalType": "uint256",
          "name": "taskID",
          "type": "uint256"
        }
      ],
      "name": "MCS",
      "outputs": [
        {
          "internalType": "enum MCScontract.TaskStatus",
          "name": "",
          "type": "uint8"
        }
      ],
      "stateMutability": "nonpayable",
      "type": "function"
    },
    {
      "inputs": [],
      "name": "workerSelection",
      "outputs": [
        {
          "internalType": "address",
          "name": "",
          "type": "address"
        }
      ],
      "stateMutability": "view",
      "type": "function",
      "constant": true
    },
    {
      "inputs": [
        {
          "internalType": "uint256",
          "name": "taskID",
          "type": "uint256"
        },
        {
          "internalType": "address",
          "name": "workerAddress",
          "type": "address"
        },
        {
          "internalType": "string",
          "name": "dataType",
          "type": "string"
        },
        {
          "internalType": "string",
          "name": "dataContent",
          "type": "string"
        }
      ],
      "name": "uploadData",
      "outputs": [
        {
          "internalType": "uint256",
          "name": "",
          "type": "uint256"
        }
      ],
      "stateMutability": "nonpayable",
      "type": "function"
    },
    {
      "inputs": [
        {
          "internalType": "uint256",
          "name": "dataID",
          "type": "uint256"
        },
        {
          "internalType": "string",
          "name": "feedback",
          "type": "string"
        },
        {
          "internalType": "address",
          "name": "requesterAddress",
          "type": "address"
        }
      ],
      "name": "dataValidate",
      "outputs": [
        {
          "internalType": "string",
          "name": "",
          "type": "string"
        }
      ],
      "stateMutability": "view",
      "type": "function",
      "constant": true
    },
    {
      "inputs": [
        {
          "internalType": "address",
          "name": "workerAddress",
          "type": "address"
        },
        {
          "internalType": "uint256",
          "name": "taskID",
          "type": "uint256"
        }
      ],
      "name": "paymentDistribution",
      "outputs": [
        {
          "internalType": "bool",
          "name": "",
          "type": "bool"
        }
      ],
      "stateMutability": "nonpayable",
      "type": "function"
    }
  ],
  "bytecode": "0x60806040523480156200001157600080fd5b50604051620025503803806200255083398181016040528101906200003791906200012a565b816000806101000a81548173ffffffffffffffffffffffffffffffffffffffff021916908373ffffffffffffffffffffffffffffffffffffffff16021790555080600160006101000a81548173ffffffffffffffffffffffffffffffffffffffff021916908373ffffffffffffffffffffffffffffffffffffffff160217905550505062000171565b600080fd5b600073ffffffffffffffffffffffffffffffffffffffff82169050919050565b6000620000f282620000c5565b9050919050565b6200010481620000e5565b81146200011057600080fd5b50565b6000815190506200012481620000f9565b92915050565b60008060408385031215620001445762000143620000c0565b5b6000620001548582860162000113565b9250506020620001678582860162000113565b9150509250929050565b6123cf80620001816000396000f3fe608060405234801561001057600080fd5b50600436106100885760003560e01c806397d5b8a51161005b57806397d5b8a514610129578063b98b61f014610147578063c68343ab14610177578063f0ba8440146101a757610088565b806312e6faed1461008d5780631f1e916c146100bd57806346cd4327146100db578063846c0644146100f9575b600080fd5b6100a760048036038101906100a2919061123b565b6101dc565b6040516100b491906112df565b60405180910390f35b6100c561065f565b6040516100d29190611379565b60405180910390f35b6100e3610685565b6040516100f091906113b5565b60405180910390f35b610113600480360381019061010e9190611554565b6106a9565b6040516101209190611602565b60405180910390f35b6101316109ee565b60405161013e919061162c565b60405180910390f35b610161600480360381019061015c9190611647565b610c9a565b60405161016e9190611735565b60405180910390f35b610191600480360381019061018c9190611757565b610e52565b60405161019e91906117b2565b60405180910390f35b6101c160048036038101906101bc919061123b565b611043565b6040516101d3969594939291906117cd565b60405180910390f35b600080600080600080600080600160009054906101000a900473ffffffffffffffffffffffffffffffffffffffff1673ffffffffffffffffffffffffffffffffffffffff16633888b9d58a6040518263ffffffff1660e01b81526004016102439190611602565b600060405180830381865afa158015610260573d6000803e3d6000fd5b505050506040513d6000823e3d601f19601f8201168201806040525081019061028991906118d6565b965096509650965096509650965060006102a16109ee565b905060008054906101000a900473ffffffffffffffffffffffffffffffffffffffff1673ffffffffffffffffffffffffffffffffffffffff16634a222b3582876040518363ffffffff1660e01b81526004016102fe9291906119cc565b600060405180830381600087803b15801561031857600080fd5b505af115801561032c573d6000803e3d6000fd5b5050505060004290508560008054906101000a900473ffffffffffffffffffffffffffffffffffffffff1673ffffffffffffffffffffffffffffffffffffffff1663ee204abb846040518263ffffffff1660e01b815260040161038f919061162c565b602060405180830381865afa1580156103ac573d6000803e3d6000fd5b505050506040513d601f19601f820116820180604052508101906103d091906119f5565b10156103e8576000995050505050505050505061065a565b8381101561048f57600160009054906101000a900473ffffffffffffffffffffffffffffffffffffffff1673ffffffffffffffffffffffffffffffffffffffff166383aa4d6d8c6040518263ffffffff1660e01b815260040161044b9190611a6e565b600060405180830381600087803b15801561046557600080fd5b505af1158015610479573d6000803e3d6000fd5b505050506001995050505050505050505061065a565b60006105078c846040518060400160405280600981526020017f44617461205479706500000000000000000000000000000000000000000000008152506040518060400160405280600b81526020017f53616d706c6520446174610000000000000000000000000000000000000000008152506106a9565b9050600061054b826040518060400160405280600381526020017f4e6f6e00000000000000000000000000000000000000000000000000000000008152508d610c9a565b905060405160200161055c90611af3565b60405160208183030381529060405280519060200120816040516020016105839190611b39565b604051602081830303815290604052805190602001200361064a576105a8848e610e52565b50600160009054906101000a900473ffffffffffffffffffffffffffffffffffffffff1673ffffffffffffffffffffffffffffffffffffffff166383aa4d6d8e6040518263ffffffff1660e01b81526004016106049190611b9c565b600060405180830381600087803b15801561061e57600080fd5b505af1158015610632573d6000803e3d6000fd5b5050505060029b50505050505050505050505061065a565b60009b5050505050505050505050505b919050565b600160009054906101000a900473ffffffffffffffffffffffffffffffffffffffff1681565b60008054906101000a900473ffffffffffffffffffffffffffffffffffffffff1681565b6000600160009054906101000a900473ffffffffffffffffffffffffffffffffffffffff1673ffffffffffffffffffffffffffffffffffffffff1663322ac83d866040518263ffffffff1660e01b81526004016107069190611602565b602060405180830381865afa158015610723573d6000803e3d6000fd5b505050506040513d601f19601f820116820180604052508101906107479190611bf6565b610786576040517f08c379a000000000000000000000000000000000000000000000000000000000815260040161077d90611c6f565b60405180910390fd5b6000600160009054906101000a900473ffffffffffffffffffffffffffffffffffffffff1673ffffffffffffffffffffffffffffffffffffffff1663266694be876040518263ffffffff1660e01b81526004016107e39190611602565b602060405180830381865afa158015610800573d6000803e3d6000fd5b505050506040513d601f19601f820116820180604052508101906108249190611c8f565b9050600042905060006108356111cf565b90506040518060c001604052808873ffffffffffffffffffffffffffffffffffffffff1681526020018473ffffffffffffffffffffffffffffffffffffffff168152602001898152602001878152602001838152602001868152506003600083815260200190815260200160002060008201518160000160006101000a81548173ffffffffffffffffffffffffffffffffffffffff021916908373ffffffffffffffffffffffffffffffffffffffff16021790555060208201518160010160006101000a81548173ffffffffffffffffffffffffffffffffffffffff021916908373ffffffffffffffffffffffffffffffffffffffff1602179055506040820151816002015560608201518160030190816109509190611ebe565b506080820151816004015560a08201518160050190816109709190611ebe565b509050508273ffffffffffffffffffffffffffffffffffffffff168773ffffffffffffffffffffffffffffffffffffffff16827fe9df684f741a75ad60fe55812bc310d31eb45d20f3f13da5dd9490dd907c36358b8a878b6040516109d89493929190611f90565b60405180910390a4809350505050949350505050565b60008060008054906101000a900473ffffffffffffffffffffffffffffffffffffffff1673ffffffffffffffffffffffffffffffffffffffff1663c1499f716040518163ffffffff1660e01b8152600401600060405180830381865afa158015610a5c573d6000803e3d6000fd5b505050506040513d6000823e3d601f19601f82011682018060405250810190610a8591906120ab565b90506000815111610acb576040517f08c379a0000000000000000000000000000000000000000000000000000000008152600401610ac290612140565b60405180910390fd5b600081600081518110610ae157610ae0612160565b5b6020026020010151905060008060009054906101000a900473ffffffffffffffffffffffffffffffffffffffff1673ffffffffffffffffffffffffffffffffffffffff1663ee204abb836040518263ffffffff1660e01b8152600401610b47919061162c565b602060405180830381865afa158015610b64573d6000803e3d6000fd5b505050506040513d601f19601f82011682018060405250810190610b8891906119f5565b90506000600190505b8351811015610c905760008060009054906101000a900473ffffffffffffffffffffffffffffffffffffffff1673ffffffffffffffffffffffffffffffffffffffff1663ee204abb868481518110610bec57610beb612160565b5b60200260200101516040518263ffffffff1660e01b8152600401610c10919061162c565b602060405180830381865afa158015610c2d573d6000803e3d6000fd5b505050506040513d601f19601f82011682018060405250810190610c5191906119f5565b905082811115610c7c57809250848281518110610c7157610c70612160565b5b602002602001015193505b508080610c88906121be565b915050610b91565b5081935050505090565b60606000835111610ce0576040517f08c379a0000000000000000000000000000000000000000000000000000000008152600401610cd790612252565b60405180910390fd5b8173ffffffffffffffffffffffffffffffffffffffff166003600086815260200190815260200160002060010160009054906101000a900473ffffffffffffffffffffffffffffffffffffffff1673ffffffffffffffffffffffffffffffffffffffff1614610d84576040517f08c379a0000000000000000000000000000000000000000000000000000000008152600401610d7b906122e4565b60405180910390fd5b604051602001610d9390612350565b6040516020818303038152906040528051906020012083604051602001610dba9190611b39565b6040516020818303038152906040528051906020012003610e12576040518060400160405280600981526020017f4e6f6e76616c69646500000000000000000000000000000000000000000000008152509050610e4b565b6040518060400160405280600681526020017f56616c696465000000000000000000000000000000000000000000000000000081525090505b9392505050565b600080600080600080600080600160009054906101000a900473ffffffffffffffffffffffffffffffffffffffff1673ffffffffffffffffffffffffffffffffffffffff16633888b9d58a6040518263ffffffff1660e01b8152600401610eb99190611602565b600060405180830381865afa158015610ed6573d6000803e3d6000fd5b505050506040513d6000823e3d601f19601f82011682018060405250810190610eff91906118d6565b965096509650965096509650965060008054906101000a900473ffffffffffffffffffffffffffffffffffffffff1673ffffffffffffffffffffffffffffffffffffffff1663507cd30f8b8688610f569190612365565b6040518363ffffffff1660e01b8152600401610f739291906119cc565b600060405180830381600087803b158015610f8d57600080fd5b505af1158015610fa1573d6000803e3d6000fd5b5050505060008054906101000a900473ffffffffffffffffffffffffffffffffffffffff1673ffffffffffffffffffffffffffffffffffffffff16634a222b3588866040518363ffffffff1660e01b81526004016110009291906119cc565b600060405180830381600087803b15801561101a57600080fd5b505af115801561102e573d6000803e3d6000fd5b50505050600197505050505050505092915050565b60036020528060005260406000206000915090508060000160009054906101000a900473ffffffffffffffffffffffffffffffffffffffff16908060010160009054906101000a900473ffffffffffffffffffffffffffffffffffffffff16908060020154908060030180546110b890611ceb565b80601f01602080910402602001604051908101604052809291908181526020018280546110e490611ceb565b80156111315780601f1061110657610100808354040283529160200191611131565b820191906000526020600020905b81548152906001019060200180831161111457829003601f168201915b50505050509080600401549080600501805461114c90611ceb565b80601f016020809104026020016040519081016040528092919081815260200182805461117890611ceb565b80156111c55780601f1061119a576101008083540402835291602001916111c5565b820191906000526020600020905b8154815290600101906020018083116111a857829003601f168201915b5050505050905086565b6000600260008154809291906111e4906121be565b9190505550600254905090565b6000604051905090565b600080fd5b600080fd5b6000819050919050565b61121881611205565b811461122357600080fd5b50565b6000813590506112358161120f565b92915050565b600060208284031215611251576112506111fb565b5b600061125f84828501611226565b91505092915050565b7f4e487b7100000000000000000000000000000000000000000000000000000000600052602160045260246000fd5b600381106112a8576112a7611268565b5b50565b60008190506112b982611297565b919050565b60006112c9826112ab565b9050919050565b6112d9816112be565b82525050565b60006020820190506112f460008301846112d0565b92915050565b600073ffffffffffffffffffffffffffffffffffffffff82169050919050565b6000819050919050565b600061133f61133a611335846112fa565b61131a565b6112fa565b9050919050565b600061135182611324565b9050919050565b600061136382611346565b9050919050565b61137381611358565b82525050565b600060208201905061138e600083018461136a565b92915050565b600061139f82611346565b9050919050565b6113af81611394565b82525050565b60006020820190506113ca60008301846113a6565b92915050565b60006113db826112fa565b9050919050565b6113eb816113d0565b81146113f657600080fd5b50565b600081359050611408816113e2565b92915050565b600080fd5b600080fd5b6000601f19601f8301169050919050565b7f4e487b7100000000000000000000000000000000000000000000000000000000600052604160045260246000fd5b61146182611418565b810181811067ffffffffffffffff821117156114805761147f611429565b5b80604052505050565b60006114936111f1565b905061149f8282611458565b919050565b600067ffffffffffffffff8211156114bf576114be611429565b5b6114c882611418565b9050602081019050919050565b82818337600083830152505050565b60006114f76114f2846114a4565b611489565b90508281526020810184848401111561151357611512611413565b5b61151e8482856114d5565b509392505050565b600082601f83011261153b5761153a61140e565b5b813561154b8482602086016114e4565b91505092915050565b6000806000806080858703121561156e5761156d6111fb565b5b600061157c87828801611226565b945050602061158d878288016113f9565b935050604085013567ffffffffffffffff8111156115ae576115ad611200565b5b6115ba87828801611526565b925050606085013567ffffffffffffffff8111156115db576115da611200565b5b6115e787828801611526565b91505092959194509250565b6115fc81611205565b82525050565b600060208201905061161760008301846115f3565b92915050565b611626816113d0565b82525050565b6000602082019050611641600083018461161d565b92915050565b6000806000606084860312156116605761165f6111fb565b5b600061166e86828701611226565b935050602084013567ffffffffffffffff81111561168f5761168e611200565b5b61169b86828701611526565b92505060406116ac868287016113f9565b9150509250925092565b600081519050919050565b600082825260208201905092915050565b60005b838110156116f05780820151818401526020810190506116d5565b60008484015250505050565b6000611707826116b6565b61171181856116c1565b93506117218185602086016116d2565b61172a81611418565b840191505092915050565b6000602082019050818103600083015261174f81846116fc565b905092915050565b6000806040838503121561176e5761176d6111fb565b5b600061177c858286016113f9565b925050602061178d85828601611226565b9150509250929050565b60008115159050919050565b6117ac81611797565b82525050565b60006020820190506117c760008301846117a3565b92915050565b600060c0820190506117e2600083018961161d565b6117ef602083018861161d565b6117fc60408301876115f3565b818103606083015261180e81866116fc565b905061181d60808301856115f3565b81810360a083015261182f81846116fc565b9050979650505050505050565b60008151905061184b816113e2565b92915050565b600061186461185f846114a4565b611489565b9050828152602081018484840111156118805761187f611413565b5b61188b8482856116d2565b509392505050565b600082601f8301126118a8576118a761140e565b5b81516118b8848260208601611851565b91505092915050565b6000815190506118d08161120f565b92915050565b600080600080600080600060e0888a0312156118f5576118f46111fb565b5b60006119038a828b0161183c565b975050602088015167ffffffffffffffff81111561192457611923611200565b5b6119308a828b01611893565b96505060406119418a828b016118c1565b95505060606119528a828b016118c1565b945050608088015167ffffffffffffffff81111561197357611972611200565b5b61197f8a828b01611893565b93505060a06119908a828b016118c1565b92505060c088015167ffffffffffffffff8111156119b1576119b0611200565b5b6119bd8a828b01611893565b91505092959891949750929550565b60006040820190506119e1600083018561161d565b6119ee60208301846115f3565b9392505050565b600060208284031215611a0b57611a0a6111fb565b5b6000611a19848285016118c1565b91505092915050565b7f4661696c65640000000000000000000000000000000000000000000000000000600082015250565b6000611a586006836116c1565b9150611a6382611a22565b602082019050919050565b6000604082019050611a8360008301846115f3565b8181036020830152611a9481611a4b565b905092915050565b600081905092915050565b7f56616c6964650000000000000000000000000000000000000000000000000000600082015250565b6000611add600683611a9c565b9150611ae882611aa7565b600682019050919050565b6000611afe82611ad0565b9150819050919050565b6000611b13826116b6565b611b1d8185611a9c565b9350611b2d8185602086016116d2565b80840191505092915050565b6000611b458284611b08565b915081905092915050565b7f436f6d706c657465640000000000000000000000000000000000000000000000600082015250565b6000611b866009836116c1565b9150611b9182611b50565b602082019050919050565b6000604082019050611bb160008301846115f3565b8181036020830152611bc281611b79565b905092915050565b611bd381611797565b8114611bde57600080fd5b50565b600081519050611bf081611bca565b92915050565b600060208284031215611c0c57611c0b6111fb565b5b6000611c1a84828501611be1565b91505092915050565b7f5461736b206e6f7420617661696c61626c650000000000000000000000000000600082015250565b6000611c596012836116c1565b9150611c6482611c23565b602082019050919050565b60006020820190508181036000830152611c8881611c4c565b9050919050565b600060208284031215611ca557611ca46111fb565b5b6000611cb38482850161183c565b91505092915050565b7f4e487b7100000000000000000000000000000000000000000000000000000000600052602260045260246000fd5b60006002820490506001821680611d0357607f821691505b602082108103611d1657611d15611cbc565b5b50919050565b60008190508160005260206000209050919050565b60006020601f8301049050919050565b600082821b905092915050565b600060088302611d7e7fffffffffffffffffffffffffffffffffffffffffffffffffffffffffffffffff82611d41565b611d888683611d41565b95508019841693508086168417925050509392505050565b6000611dbb611db6611db184611205565b61131a565b611205565b9050919050565b6000819050919050565b611dd583611da0565b611de9611de182611dc2565b848454611d4e565b825550505050565b600090565b611dfe611df1565b611e09818484611dcc565b505050565b5b81811015611e2d57611e22600082611df6565b600181019050611e0f565b5050565b601f821115611e7257611e4381611d1c565b611e4c84611d31565b81016020851015611e5b578190505b611e6f611e6785611d31565b830182611e0e565b50505b505050565b600082821c905092915050565b6000611e9560001984600802611e77565b1980831691505092915050565b6000611eae8383611e84565b9150826002028217905092915050565b611ec7826116b6565b67ffffffffffffffff811115611ee057611edf611429565b5b611eea8254611ceb565b611ef5828285611e31565b600060209050601f831160018114611f285760008415611f16578287015190505b611f208582611ea2565b865550611f88565b601f198416611f3686611d1c565b60005b82811015611f5e57848901518255600182019150602085019450602081019050611f39565b86831015611f7b5784890151611f77601f891682611e84565b8355505b6001600288020188555050505b505050505050565b6000608082019050611fa560008301876115f3565b8181036020830152611fb781866116fc565b9050611fc660408301856115f3565b8181036060830152611fd881846116fc565b905095945050505050565b600067ffffffffffffffff821115611ffe57611ffd611429565b5b602082029050602081019050919050565b600080fd5b600061202761202284611fe3565b611489565b9050808382526020820190506020840283018581111561204a5761204961200f565b5b835b81811015612073578061205f888261183c565b84526020840193505060208101905061204c565b5050509392505050565b600082601f8301126120925761209161140e565b5b81516120a2848260208601612014565b91505092915050565b6000602082840312156120c1576120c06111fb565b5b600082015167ffffffffffffffff8111156120df576120de611200565b5b6120eb8482850161207d565b91505092915050565b7f4e6f20776f726b65727320617661696c61626c65000000000000000000000000600082015250565b600061212a6014836116c1565b9150612135826120f4565b602082019050919050565b600060208201905081810360008301526121598161211d565b9050919050565b7f4e487b7100000000000000000000000000000000000000000000000000000000600052603260045260246000fd5b7f4e487b7100000000000000000000000000000000000000000000000000000000600052601160045260246000fd5b60006121c982611205565b91507fffffffffffffffffffffffffffffffffffffffffffffffffffffffffffffffff82036121fb576121fa61218f565b5b600182019050919050565b7f466565646261636b2063616e6e6f7420626520656d7074790000000000000000600082015250565b600061223c6018836116c1565b915061224782612206565b602082019050919050565b6000602082019050818103600083015261226b8161222f565b9050919050565b7f4f6e6c7920746865207265717565737465722063616e2076616c69646174652060008201527f6461746100000000000000000000000000000000000000000000000000000000602082015250565b60006122ce6024836116c1565b91506122d982612272565b604082019050919050565b600060208201905081810360008301526122fd816122c1565b9050919050565b7f4e6f6e0000000000000000000000000000000000000000000000000000000000600082015250565b600061233a600383611a9c565b915061234582612304565b600382019050919050565b600061235b8261232d565b9150819050919050565b600061237082611205565b915061237b83611205565b92508282019050808211156123935761239261218f565b5b9291505056fea2646970667358221220d3ee094d69bed5e21f00e882ad37426f91efbf573f4c707395865740e37ede2e64736f6c63430008110033",
  "immutableReferences": {},
  "source": "// SPDX-License-Identifier: MIT\npragma solidity >=0.4.22 <0.9.0;\n\nimport \"./UserRegistrationContract.sol\";\nimport \"./TaskCreation.sol\";\n\ncontract MCScontract {\n    UserRegistrationContract public userRegistrationContract;\n    TaskCreation public taskCreationContract;\n    uint256 private dataCounter;\n    enum TaskStatus { Available, Failed, Completed }\n\n    // Structure to represent data uploaded by the worker\n    struct Data {\n        address workerAddress;\n        address requesterAddress;\n        uint256 taskID;\n        string dataType;\n        uint256 depositDate;\n        string dataContent;\n    }\n\n    // Mapping to store data\n    mapping(uint256 => Data) public data;\n\n    // Event to signal the upload of data\n    event DataUploaded(uint256 indexed dataID, address indexed workerAddress, address indexed requesterAddress, uint256 taskID, string dataType, uint256 depositDate, string dataContent);\n\n    constructor(address userRegistrationAddress, address taskCreationAddress) {\n        userRegistrationContract = UserRegistrationContract(userRegistrationAddress);\n        taskCreationContract = TaskCreation(taskCreationAddress);\n    }\n\n    function MCS(uint256 taskID) public returns (TaskStatus) {\n    // Get task details\n    (\n            address requesterAddress,\n            string memory objective,\n            uint256 reward,\n            uint256 deposit,\n            string memory typeData,\n            uint256 deadline,\n            string memory taskstatus\n        ) = taskCreationContract.getTaskDetails(taskID);\n\n    // Worker selection\n    address workerAddress = workerSelection();\n    userRegistrationContract.subtractPoints(workerAddress, deposit);\n    uint256 temps = block.timestamp;\n    //uint256 temps2 = block.timestamp+ 30 days;\n\n\n\n    \n    // Check if the worker has enough points\n    if (userRegistrationContract.getPoints(workerAddress) < deposit) {\n        return TaskStatus.Available;\n    }\n\n    // Check if the deadline has passed\n    if (temps < deadline) {\n        taskCreationContract.updateTaskStatus(taskID, \"Failed\");\n        return TaskStatus.Failed;\n    }\n\n    // Upload data and get data ID\n    uint256 dataID = uploadData(taskID, workerAddress, \"Data Type\", \"Sample Data\");\n\n    // Validate data\n    string memory feedback = dataValidate(dataID, \"Non\", requesterAddress);\n\n    if (keccak256(abi.encodePacked((feedback))) == keccak256(abi.encodePacked((\"Valide\")))) {\n        // Perform payment distribution\n        paymentDistribution(workerAddress, taskID);\n\n        // Update task status to \"Completed\"\n        taskCreationContract.updateTaskStatus(taskID, \"Completed\");\n\n        return TaskStatus.Completed;\n    } else {\n        return TaskStatus.Available;\n    }\n}\n\n    function workerSelection() public view returns (address) {\n        address[] memory workers = userRegistrationContract.getWorkers();\n        require(workers.length > 0, \"No workers available\");\n\n        address selectedWorker = workers[0];\n        uint256 maxPoints = userRegistrationContract.getPoints(selectedWorker);\n\n        for (uint256 i = 1; i < workers.length; i++) {\n            uint256 workerPoints = userRegistrationContract.getPoints(workers[i]);\n\n            if (workerPoints > maxPoints) {\n                maxPoints = workerPoints;\n                selectedWorker = workers[i];\n            }\n        }\n\n        return selectedWorker;\n    }\n\n    function uploadData(uint256 taskID, address workerAddress, string memory dataType, string memory dataContent) public returns (uint256) {\n        require(taskCreationContract.isTaskAvailable(taskID), \"Task not available\");\n\n        // Get the address of the selected worker\n        address requesterAddress = taskCreationContract.getRequesterAddress(taskID);\n        uint256 depositDate = block.timestamp;\n\n        // Generate a unique data ID\n        uint256 dataID = generateUniqueDataID();\n\n        // Store data in the mapping\n        data[dataID] = Data({\n            workerAddress: workerAddress,\n            requesterAddress: requesterAddress,\n            taskID: taskID,\n            dataType: dataType,\n            depositDate: depositDate,\n            dataContent: dataContent\n        });\n\n        // Emit an event to signal the upload of data\n        emit DataUploaded(dataID, workerAddress, requesterAddress, taskID, dataType, depositDate, dataContent);\n\n        // Return the data ID\n        return dataID;\n    }\n\n    function generateUniqueDataID() private returns (uint256) {\n        dataCounter++;\n        return dataCounter;\n    }\n\n    function dataValidate(uint256 dataID, string memory feedback, address requesterAddress) public view returns (string memory) {\n        require(bytes(feedback).length > 0, \"Feedback cannot be empty\");\n        require(data[dataID].requesterAddress == requesterAddress, \"Only the requester can validate data\");\n\n        // Check the feedback value\n        if (keccak256(abi.encodePacked((feedback))) == keccak256(abi.encodePacked((\"Non\")))) {\n            // If feedback is \"Non\", mark data as invalid\n            return \"Nonvalide\";\n        } else {\n            // If feedback is anything other than \"Non\", mark data as valid\n            return \"Valide\";\n        }\n    }\n\n    // Function to distribute payment to the worker\n    function paymentDistribution(address workerAddress, uint256 taskID) public returns (bool) {\n        // Obtain task details\n        (\n            address taskRequesterAddress,\n            string memory objective,\n            uint256 reward,\n            uint256 deposit,\n            string memory typeData,\n            uint256 deadline,\n            string memory status\n        ) = taskCreationContract.getTaskDetails(taskID);\n\n        // Add the reward and deposit to the worker's points balance\n        userRegistrationContract.addPoints(workerAddress, reward + deposit);\n\n        // Subtract the deposit already paid by the worker at the beginning\n        userRegistrationContract.subtractPoints(taskRequesterAddress, deposit);\n\n        // Uncomment the next line if you have a function to mark the task as completed\n        // taskCreationContract.markTaskAsCompleted(taskID);\n\n        // Return true to indicate successful distribution\n        return true;\n    }\n    \n}\n",
  "sourcePath": "C:\\Users\\USER\\OneDrive\\Documents\\ensias\\projet_federateur\\Project\\contracts\\MCScontract.sol",
  "compiler": {
    "name": "solc",
    "version": "0.8.17+commit.8df45f5f.Emscripten.clang"
  },
  "schemaVersion": "3.4.16",
  "updatedAt": "2024-01-31T11:33:14.166Z",
  "networkType": "ethereum",
  "devdoc": {
    "kind": "dev",
    "methods": {},
    "version": 1
  },
  "userdoc": {
    "kind": "user",
    "methods": {},
    "version": 1
  }
}