{
  "contractName": "TaskCreation",
  "abi": [
    {
      "inputs": [],
      "stateMutability": "nonpayable",
      "type": "constructor"
    },
    {
      "anonymous": false,
      "inputs": [
        {
          "indexed": true,
          "internalType": "uint256",
          "name": "taskID",
          "type": "uint256"
        },
        {
          "indexed": true,
          "internalType": "address",
          "name": "requesterAddress",
          "type": "address"
        },
        {
          "indexed": false,
          "internalType": "string",
          "name": "objective",
          "type": "string"
        },
        {
          "indexed": false,
          "internalType": "uint256",
          "name": "reward",
          "type": "uint256"
        },
        {
          "indexed": false,
          "internalType": "uint256",
          "name": "deposit",
          "type": "uint256"
        },
        {
          "indexed": false,
          "internalType": "string",
          "name": "typeData",
          "type": "string"
        },
        {
          "indexed": false,
          "internalType": "uint256",
          "name": "deadline",
          "type": "uint256"
        },
        {
          "indexed": false,
          "internalType": "string",
          "name": "status",
          "type": "string"
        }
      ],
      "name": "TaskCreated",
      "type": "event"
    },
    {
      "inputs": [
        {
          "internalType": "uint256",
          "name": "",
          "type": "uint256"
        }
      ],
      "name": "taskList",
      "outputs": [
        {
          "internalType": "uint256",
          "name": "",
          "type": "uint256"
        }
      ],
      "stateMutability": "view",
      "type": "function",
      "constant": true
    },
    {
      "inputs": [
        {
          "internalType": "uint256",
          "name": "",
          "type": "uint256"
        }
      ],
      "name": "tasks",
      "outputs": [
        {
          "internalType": "address",
          "name": "requesterAddress",
          "type": "address"
        },
        {
          "internalType": "string",
          "name": "objective",
          "type": "string"
        },
        {
          "internalType": "uint256",
          "name": "reward",
          "type": "uint256"
        },
        {
          "internalType": "uint256",
          "name": "deposit",
          "type": "uint256"
        },
        {
          "internalType": "string",
          "name": "typeData",
          "type": "string"
        },
        {
          "internalType": "uint256",
          "name": "deadline",
          "type": "uint256"
        },
        {
          "internalType": "string",
          "name": "status",
          "type": "string"
        }
      ],
      "stateMutability": "view",
      "type": "function",
      "constant": true
    },
    {
      "inputs": [
        {
          "internalType": "address",
          "name": "requesterAddress",
          "type": "address"
        },
        {
          "internalType": "string",
          "name": "objective",
          "type": "string"
        },
        {
          "internalType": "uint256",
          "name": "reward",
          "type": "uint256"
        },
        {
          "internalType": "uint256",
          "name": "deposit",
          "type": "uint256"
        },
        {
          "internalType": "string",
          "name": "typeData",
          "type": "string"
        },
        {
          "internalType": "uint256",
          "name": "deadline",
          "type": "uint256"
        }
      ],
      "name": "createTask",
      "outputs": [
        {
          "internalType": "uint256",
          "name": "",
          "type": "uint256"
        }
      ],
      "stateMutability": "nonpayable",
      "type": "function"
    },
    {
      "inputs": [],
      "name": "getTaskList",
      "outputs": [
        {
          "internalType": "uint256[]",
          "name": "",
          "type": "uint256[]"
        }
      ],
      "stateMutability": "view",
      "type": "function",
      "constant": true
    },
    {
      "inputs": [
        {
          "internalType": "uint256",
          "name": "taskID",
          "type": "uint256"
        }
      ],
      "name": "getTaskDetails",
      "outputs": [
        {
          "internalType": "address",
          "name": "",
          "type": "address"
        },
        {
          "internalType": "string",
          "name": "",
          "type": "string"
        },
        {
          "internalType": "uint256",
          "name": "",
          "type": "uint256"
        },
        {
          "internalType": "uint256",
          "name": "",
          "type": "uint256"
        },
        {
          "internalType": "string",
          "name": "",
          "type": "string"
        },
        {
          "internalType": "uint256",
          "name": "",
          "type": "uint256"
        },
        {
          "internalType": "string",
          "name": "",
          "type": "string"
        }
      ],
      "stateMutability": "view",
      "type": "function",
      "constant": true
    },
    {
      "inputs": [
        {
          "internalType": "uint256",
          "name": "taskID",
          "type": "uint256"
        }
      ],
      "name": "isTaskAvailable",
      "outputs": [
        {
          "internalType": "bool",
          "name": "",
          "type": "bool"
        }
      ],
      "stateMutability": "view",
      "type": "function",
      "constant": true
    },
    {
      "inputs": [
        {
          "internalType": "uint256",
          "name": "taskID",
          "type": "uint256"
        }
      ],
      "name": "getRequesterAddress",
      "outputs": [
        {
          "internalType": "address",
          "name": "",
          "type": "address"
        }
      ],
      "stateMutability": "view",
      "type": "function",
      "constant": true
    },
    {
      "inputs": [
        {
          "internalType": "uint256",
          "name": "taskID",
          "type": "uint256"
        },
        {
          "internalType": "string",
          "name": "newStatus",
          "type": "string"
        }
      ],
      "name": "updateTaskStatus",
      "outputs": [],
      "stateMutability": "nonpayable",
      "type": "function"
    }
  ],
  "bytecode": "0x608060405234801561001057600080fd5b5060006002819055506116c5806100286000396000f3fe608060405234801561001057600080fd5b50600436106100885760003560e01c806338940fae1161005b57806338940fae1461015357806383aa4d6d146101715780638d9776721461018d578063c6e9c914146101c357610088565b8063266694be1461008d5780632a1c52a5146100bd578063322ac83d146100ed5780633888b9d51461011d575b600080fd5b6100a760048036038101906100a29190610bd2565b6101f3565b6040516100b49190610c40565b60405180910390f35b6100d760048036038101906100d29190610bd2565b6102ca565b6040516100e49190610c6a565b60405180910390f35b61010760048036038101906101029190610bd2565b6102ee565b6040516101149190610ca0565b60405180910390f35b61013760048036038101906101329190610bd2565b6103ba565b60405161014a9796959493929190610d4b565b60405180910390f35b61015b61066e565b6040516101689190610e8d565b60405180910390f35b61018b60048036038101906101869190610fe4565b6106c6565b005b6101a760048036038101906101a29190610bd2565b610791565b6040516101ba9796959493929190610d4b565b60405180910390f35b6101dd60048036038101906101d8919061106c565b61098b565b6040516101ea9190610c6a565b60405180910390f35b6000806000808481526020019081526020016000209050600073ffffffffffffffffffffffffffffffffffffffff168160000160009054906101000a900473ffffffffffffffffffffffffffffffffffffffff1673ffffffffffffffffffffffffffffffffffffffff160361029d576040517f08c379a00000000000000000000000000000000000000000000000000000000081526004016102949061117d565b60405180910390fd5b8060000160009054906101000a900473ffffffffffffffffffffffffffffffffffffffff16915050919050565b600181815481106102da57600080fd5b906000526020600020016000915090505481565b6000806000808481526020019081526020016000209050600073ffffffffffffffffffffffffffffffffffffffff168160000160009054906101000a900473ffffffffffffffffffffffffffffffffffffffff1673ffffffffffffffffffffffffffffffffffffffff16141580156103b25750604051602001610370906111f4565b604051602081830303815290604052805190602001208160060160405160200161039a9190611301565b60405160208183030381529060405280519060200120145b915050919050565b6000606060008060606000606060008060008a81526020019081526020016000209050600073ffffffffffffffffffffffffffffffffffffffff168160000160009054906101000a900473ffffffffffffffffffffffffffffffffffffffff1673ffffffffffffffffffffffffffffffffffffffff1603610470576040517f08c379a00000000000000000000000000000000000000000000000000000000081526004016104679061117d565b60405180910390fd5b8060000160009054906101000a900473ffffffffffffffffffffffffffffffffffffffff168160010182600201548360030154846004018560050154866006018580546104bc90611238565b80601f01602080910402602001604051908101604052809291908181526020018280546104e890611238565b80156105355780601f1061050a57610100808354040283529160200191610535565b820191906000526020600020905b81548152906001019060200180831161051857829003601f168201915b5050505050955082805461054890611238565b80601f016020809104026020016040519081016040528092919081815260200182805461057490611238565b80156105c15780601f10610596576101008083540402835291602001916105c1565b820191906000526020600020905b8154815290600101906020018083116105a457829003601f168201915b505050505092508080546105d490611238565b80601f016020809104026020016040519081016040528092919081815260200182805461060090611238565b801561064d5780601f106106225761010080835404028352916020019161064d565b820191906000526020600020905b81548152906001019060200180831161063057829003601f168201915b50505050509050975097509750975097509750975050919395979092949650565b606060018054806020026020016040519081016040528092919081815260200182805480156106bc57602002820191906000526020600020905b8154815260200190600101908083116106a8575b5050505050905090565b600073ffffffffffffffffffffffffffffffffffffffff1660008084815260200190815260200160002060000160009054906101000a900473ffffffffffffffffffffffffffffffffffffffff1673ffffffffffffffffffffffffffffffffffffffff160361076a576040517f08c379a00000000000000000000000000000000000000000000000000000000081526004016107619061117d565b60405180910390fd5b80600080848152602001908152602001600020600601908161078c91906114af565b505050565b60006020528060005260406000206000915090508060000160009054906101000a900473ffffffffffffffffffffffffffffffffffffffff16908060010180546107da90611238565b80601f016020809104026020016040519081016040528092919081815260200182805461080690611238565b80156108535780601f1061082857610100808354040283529160200191610853565b820191906000526020600020905b81548152906001019060200180831161083657829003601f168201915b50505050509080600201549080600301549080600401805461087490611238565b80601f01602080910402602001604051908101604052809291908181526020018280546108a090611238565b80156108ed5780601f106108c2576101008083540402835291602001916108ed565b820191906000526020600020905b8154815290600101906020018083116108d057829003601f168201915b50505050509080600501549080600601805461090890611238565b80601f016020809104026020016040519081016040528092919081815260200182805461093490611238565b80156109815780601f1061095657610100808354040283529160200191610981565b820191906000526020600020905b81548152906001019060200180831161096457829003601f168201915b5050505050905087565b600080610996610b66565b905060006040518060e001604052808a73ffffffffffffffffffffffffffffffffffffffff1681526020018981526020018881526020018781526020018681526020018581526020016040518060400160405280600981526020017f417661696c61626c65000000000000000000000000000000000000000000000081525081525090508060008084815260200190815260200160002060008201518160000160006101000a81548173ffffffffffffffffffffffffffffffffffffffff021916908373ffffffffffffffffffffffffffffffffffffffff1602179055506020820151816001019081610a8991906114af565b5060408201518160020155606082015181600301556080820151816004019081610ab391906114af565b5060a0820151816005015560c0820151816006019081610ad391906114af565b5090505060018290806001815401808255809150506001900390600052602060002001600090919091909150558873ffffffffffffffffffffffffffffffffffffffff16827fc5296646fcc24f6722819185eed205ad961656d6e8797fe36592f422fe17db238a8a8a8a8a604051610b4f9594939291906115a4565b60405180910390a381925050509695505050505050565b600060026000815480929190610b7b90611647565b9190505550600254905090565b6000604051905090565b600080fd5b600080fd5b6000819050919050565b610baf81610b9c565b8114610bba57600080fd5b50565b600081359050610bcc81610ba6565b92915050565b600060208284031215610be857610be7610b92565b5b6000610bf684828501610bbd565b91505092915050565b600073ffffffffffffffffffffffffffffffffffffffff82169050919050565b6000610c2a82610bff565b9050919050565b610c3a81610c1f565b82525050565b6000602082019050610c556000830184610c31565b92915050565b610c6481610b9c565b82525050565b6000602082019050610c7f6000830184610c5b565b92915050565b60008115159050919050565b610c9a81610c85565b82525050565b6000602082019050610cb56000830184610c91565b92915050565b600081519050919050565b600082825260208201905092915050565b60005b83811015610cf5578082015181840152602081019050610cda565b60008484015250505050565b6000601f19601f8301169050919050565b6000610d1d82610cbb565b610d278185610cc6565b9350610d37818560208601610cd7565b610d4081610d01565b840191505092915050565b600060e082019050610d60600083018a610c31565b8181036020830152610d728189610d12565b9050610d816040830188610c5b565b610d8e6060830187610c5b565b8181036080830152610da08186610d12565b9050610daf60a0830185610c5b565b81810360c0830152610dc18184610d12565b905098975050505050505050565b600081519050919050565b600082825260208201905092915050565b6000819050602082019050919050565b610e0481610b9c565b82525050565b6000610e168383610dfb565b60208301905092915050565b6000602082019050919050565b6000610e3a82610dcf565b610e448185610dda565b9350610e4f83610deb565b8060005b83811015610e80578151610e678882610e0a565b9750610e7283610e22565b925050600181019050610e53565b5085935050505092915050565b60006020820190508181036000830152610ea78184610e2f565b905092915050565b600080fd5b600080fd5b7f4e487b7100000000000000000000000000000000000000000000000000000000600052604160045260246000fd5b610ef182610d01565b810181811067ffffffffffffffff82111715610f1057610f0f610eb9565b5b80604052505050565b6000610f23610b88565b9050610f2f8282610ee8565b919050565b600067ffffffffffffffff821115610f4f57610f4e610eb9565b5b610f5882610d01565b9050602081019050919050565b82818337600083830152505050565b6000610f87610f8284610f34565b610f19565b905082815260208101848484011115610fa357610fa2610eb4565b5b610fae848285610f65565b509392505050565b600082601f830112610fcb57610fca610eaf565b5b8135610fdb848260208601610f74565b91505092915050565b60008060408385031215610ffb57610ffa610b92565b5b600061100985828601610bbd565b925050602083013567ffffffffffffffff81111561102a57611029610b97565b5b61103685828601610fb6565b9150509250929050565b61104981610c1f565b811461105457600080fd5b50565b60008135905061106681611040565b92915050565b60008060008060008060c0878903121561108957611088610b92565b5b600061109789828a01611057565b965050602087013567ffffffffffffffff8111156110b8576110b7610b97565b5b6110c489828a01610fb6565b95505060406110d589828a01610bbd565b94505060606110e689828a01610bbd565b935050608087013567ffffffffffffffff81111561110757611106610b97565b5b61111389828a01610fb6565b92505060a061112489828a01610bbd565b9150509295509295509295565b7f5461736b20646f6573206e6f7420657869737400000000000000000000000000600082015250565b6000611167601383610cc6565b915061117282611131565b602082019050919050565b600060208201905081810360008301526111968161115a565b9050919050565b600081905092915050565b7f417661696c61626c650000000000000000000000000000000000000000000000600082015250565b60006111de60098361119d565b91506111e9826111a8565b600982019050919050565b60006111ff826111d1565b9150819050919050565b7f4e487b7100000000000000000000000000000000000000000000000000000000600052602260045260246000fd5b6000600282049050600182168061125057607f821691505b60208210810361126357611262611209565b5b50919050565b60008190508160005260206000209050919050565b6000815461128b81611238565b611295818661119d565b945060018216600081146112b057600181146112c5576112f8565b60ff19831686528115158202860193506112f8565b6112ce85611269565b60005b838110156112f0578154818901526001820191506020810190506112d1565b838801955050505b50505092915050565b600061130d828461127e565b915081905092915050565b60006020601f8301049050919050565b600082821b905092915050565b6000600883026113657fffffffffffffffffffffffffffffffffffffffffffffffffffffffffffffffff82611328565b61136f8683611328565b95508019841693508086168417925050509392505050565b6000819050919050565b60006113ac6113a76113a284610b9c565b611387565b610b9c565b9050919050565b6000819050919050565b6113c683611391565b6113da6113d2826113b3565b848454611335565b825550505050565b600090565b6113ef6113e2565b6113fa8184846113bd565b505050565b5b8181101561141e576114136000826113e7565b600181019050611400565b5050565b601f8211156114635761143481611269565b61143d84611318565b8101602085101561144c578190505b61146061145885611318565b8301826113ff565b50505b505050565b600082821c905092915050565b600061148660001984600802611468565b1980831691505092915050565b600061149f8383611475565b9150826002028217905092915050565b6114b882610cbb565b67ffffffffffffffff8111156114d1576114d0610eb9565b5b6114db8254611238565b6114e6828285611422565b600060209050601f8311600181146115195760008415611507578287015190505b6115118582611493565b865550611579565b601f19841661152786611269565b60005b8281101561154f5784890151825560018201915060208501945060208101905061152a565b8683101561156c5784890151611568601f891682611475565b8355505b6001600288020188555050505b505050505050565b600061158e600983610cc6565b9150611599826111a8565b602082019050919050565b600060c08201905081810360008301526115be8188610d12565b90506115cd6020830187610c5b565b6115da6040830186610c5b565b81810360608301526115ec8185610d12565b90506115fb6080830184610c5b565b81810360a083015261160c81611581565b90509695505050505050565b7f4e487b7100000000000000000000000000000000000000000000000000000000600052601160045260246000fd5b600061165282610b9c565b91507fffffffffffffffffffffffffffffffffffffffffffffffffffffffffffffffff820361168457611683611618565b5b60018201905091905056fea26469706673582212207571de19cba7f327ad42969efdf6bbf2cfd974f3c4d73ba699c76d339b940fdb64736f6c63430008110033",
  "immutableReferences": {},
  "source": "// SPDX-License-Identifier: MIT\npragma solidity >=0.4.22 <0.9.0;\n\ncontract TaskCreation {\n    // Structure pour represent une tche\n    struct Task {\n        address requesterAddress;\n        string objective;\n        uint256 reward;\n        uint256 deposit;\n        string typeData;\n        uint256 deadline;\n        string status;\n    }\n\n    // Mapping pour stocker les tches\n    mapping(uint256 => Task) public tasks;\n\n    // List pour stocker les ID des tches cres\n    uint256[] public taskList;\n\n    // Counter pour gnrer un unique ID d'une tche\n    uint256 private taskCounter;\n\n    // Event pour signaler la cration d'une nouvelle tche\n    event TaskCreated(uint256 indexed taskID, address indexed requesterAddress, string objective, uint256 reward, uint256 deposit, string typeData, uint256 deadline, string status);\n\n    // Constructor\n    constructor() {\n        // Initialiser le conter  0\n        taskCounter = 0;\n    }\n\n    // Fonction pour generer un unique ID pour une tche\n    function generateUniqueTaskID() private returns (uint256) {\n        taskCounter++;\n        return taskCounter;\n    }\n\n    // Fonction pour crer une nouvelle tche\n    function createTask(\n    address requesterAddress,\n    string memory objective,\n    uint256 reward,\n    uint256 deposit,\n    string memory typeData,\n    uint256 deadline\n    ) public returns (uint256) {\n    // Generater un unique task ID\n    uint256 taskID = generateUniqueTaskID();\n\n    // Crer une nouvelle tche\n    Task memory newTask = Task({\n        requesterAddress: requesterAddress,\n        objective: objective,\n        reward: reward,\n        deposit: deposit,\n        typeData: typeData,\n        deadline: deadline,\n        status: \"Available\" // valeur initiale de status\n    });\n\n    // Stocker la tche dans le mapping\n    tasks[taskID] = newTask;\n\n    // Ajouter le ID dans la list taskList\n    taskList.push(taskID);\n\n    // Emit un event pour signaler la creation d'une tche\n    emit TaskCreated(taskID, requesterAddress, objective, reward, deposit, typeData, deadline, \"Available\");\n\n    // Returner le ID\n    return taskID;\n}\n\n\n    // Fonction pour avoir la liste des ID\n    function getTaskList() public view returns (uint256[] memory) {\n        return taskList;\n    }\n\n    // Fonction pour avoir le contenue d'une tche\n    function getTaskDetails(uint256 taskID) public view returns (address, string memory, uint256, uint256, string memory, uint256, string memory) {\n        Task storage task = tasks[taskID];\n        require(task.requesterAddress != address(0), \"Task does not exist\");\n\n        return (\n            task.requesterAddress,\n            task.objective,\n            task.reward,\n            task.deposit,\n            task.typeData,\n            task.deadline,\n            task.status\n        );\n    }\n\n    // Fonction pour verifier si la tche est available (le status de tache)\n    function isTaskAvailable(uint256 taskID) public view returns (bool) {\n        Task storage task = tasks[taskID];\n        return (task.requesterAddress != address(0) && keccak256(abi.encodePacked((task.status))) == keccak256(abi.encodePacked((\"Available\"))));\n    }\n\n    // Fonction pour avoir l'address d'un requester pour une tche donne\n    function getRequesterAddress(uint256 taskID) public view returns (address) {\n        Task storage task = tasks[taskID];\n        require(task.requesterAddress != address(0), \"Task does not exist\");\n        return task.requesterAddress;\n    }\n\n    //Fonction pour changer le status de la tche\n    function updateTaskStatus(uint256 taskID, string memory newStatus) public {\n    require(tasks[taskID].requesterAddress != address(0), \"Task does not exist\");\n    tasks[taskID].status = newStatus;\n    }   \n}\n",
  "sourcePath": "C:\\Users\\USER\\OneDrive\\Documents\\ensias\\projet_federateur\\Project\\contracts\\TaskCreation.sol",
  "compiler": {
    "name": "solc",
    "version": "0.8.17+commit.8df45f5f.Emscripten.clang"
  },
  "schemaVersion": "3.4.16",
  "updatedAt": "2024-01-31T11:33:14.187Z",
  "networkType": "ethereum",
  "devdoc": {
    "kind": "dev",
    "methods": {},
    "version": 1
  },
  "userdoc": {
    "kind": "user",
    "methods": {},
    "version": 1
  }
}