{
  "contractName": "UserRegistrationContract",
  "abi": [
    {
      "anonymous": false,
      "inputs": [
        {
          "indexed": true,
          "internalType": "address",
          "name": "requester",
          "type": "address"
        }
      ],
      "name": "RequesterAdded",
      "type": "event"
    },
    {
      "anonymous": false,
      "inputs": [
        {
          "indexed": true,
          "internalType": "address",
          "name": "user",
          "type": "address"
        },
        {
          "indexed": false,
          "internalType": "string",
          "name": "profile",
          "type": "string"
        },
        {
          "indexed": false,
          "internalType": "uint256",
          "name": "points",
          "type": "uint256"
        }
      ],
      "name": "UserRegistered",
      "type": "event"
    },
    {
      "anonymous": false,
      "inputs": [
        {
          "indexed": true,
          "internalType": "address",
          "name": "worker",
          "type": "address"
        }
      ],
      "name": "WorkerAdded",
      "type": "event"
    },
    {
      "inputs": [
        {
          "internalType": "uint256",
          "name": "",
          "type": "uint256"
        }
      ],
      "name": "requesterPool",
      "outputs": [
        {
          "internalType": "address",
          "name": "",
          "type": "address"
        }
      ],
      "stateMutability": "view",
      "type": "function",
      "constant": true
    },
    {
      "inputs": [
        {
          "internalType": "address",
          "name": "",
          "type": "address"
        }
      ],
      "name": "users",
      "outputs": [
        {
          "internalType": "string",
          "name": "profile",
          "type": "string"
        },
        {
          "internalType": "uint256",
          "name": "points",
          "type": "uint256"
        }
      ],
      "stateMutability": "view",
      "type": "function",
      "constant": true
    },
    {
      "inputs": [
        {
          "internalType": "uint256",
          "name": "",
          "type": "uint256"
        }
      ],
      "name": "workerPool",
      "outputs": [
        {
          "internalType": "address",
          "name": "",
          "type": "address"
        }
      ],
      "stateMutability": "view",
      "type": "function",
      "constant": true
    },
    {
      "inputs": [
        {
          "internalType": "string",
          "name": "profile",
          "type": "string"
        },
        {
          "internalType": "uint256",
          "name": "points",
          "type": "uint256"
        },
        {
          "internalType": "address",
          "name": "userId",
          "type": "address"
        }
      ],
      "name": "addUser",
      "outputs": [
        {
          "internalType": "bool",
          "name": "",
          "type": "bool"
        }
      ],
      "stateMutability": "nonpayable",
      "type": "function"
    },
    {
      "inputs": [],
      "name": "getRequesters",
      "outputs": [
        {
          "internalType": "address[]",
          "name": "",
          "type": "address[]"
        }
      ],
      "stateMutability": "view",
      "type": "function",
      "constant": true
    },
    {
      "inputs": [],
      "name": "getWorkers",
      "outputs": [
        {
          "internalType": "address[]",
          "name": "",
          "type": "address[]"
        }
      ],
      "stateMutability": "view",
      "type": "function",
      "constant": true
    },
    {
      "inputs": [
        {
          "internalType": "address",
          "name": "requesterAddress",
          "type": "address"
        }
      ],
      "name": "isRequesterRegistered",
      "outputs": [
        {
          "internalType": "bool",
          "name": "",
          "type": "bool"
        }
      ],
      "stateMutability": "view",
      "type": "function",
      "constant": true
    },
    {
      "inputs": [
        {
          "internalType": "address",
          "name": "userAddress",
          "type": "address"
        }
      ],
      "name": "getPoints",
      "outputs": [
        {
          "internalType": "uint256",
          "name": "",
          "type": "uint256"
        }
      ],
      "stateMutability": "view",
      "type": "function",
      "constant": true
    },
    {
      "inputs": [
        {
          "internalType": "address",
          "name": "userAddress",
          "type": "address"
        },
        {
          "internalType": "uint256",
          "name": "pointsToAdd",
          "type": "uint256"
        }
      ],
      "name": "addPoints",
      "outputs": [],
      "stateMutability": "nonpayable",
      "type": "function"
    },
    {
      "inputs": [
        {
          "internalType": "address",
          "name": "userAddress",
          "type": "address"
        },
        {
          "internalType": "uint256",
          "name": "pointsToSubtract",
          "type": "uint256"
        }
      ],
      "name": "subtractPoints",
      "outputs": [],
      "stateMutability": "nonpayable",
      "type": "function"
    }
  ],
  "bytecode": "0x608060405234801561001057600080fd5b50611676806100206000396000f3fe608060405234801561001057600080fd5b506004361061009e5760003560e01c8063b124fc1311610066578063b124fc131461016c578063be80e0db1461019c578063c1499f71146101cc578063cb0830a3146101ea578063ee204abb146102085761009e565b80634a222b35146100a3578063507cd30f146100bf57806352047e71146100db578063988854001461010b578063a87430ba1461013b575b600080fd5b6100bd60048036038101906100b89190610bee565b610238565b005b6100d960048036038101906100d49190610bee565b610294565b005b6100f560048036038101906100f09190610c2e565b6102f0565b6040516101029190610c6a565b60405180910390f35b61012560048036038101906101209190610c85565b61032f565b6040516101329190610ccd565b60405180910390f35b61015560048036038101906101509190610c85565b6103cc565b604051610163929190610d87565b60405180910390f35b61018660048036038101906101819190610c2e565b610478565b6040516101939190610c6a565b60405180910390f35b6101b660048036038101906101b19190610eec565b6104b7565b6040516101c39190610ccd565b60405180910390f35b6101d4610932565b6040516101e19190611019565b60405180910390f35b6101f26109c0565b6040516101ff9190611019565b60405180910390f35b610222600480360381019061021d9190610c85565b610a4e565b60405161022f919061103b565b60405180910390f35b806000808473ffffffffffffffffffffffffffffffffffffffff1673ffffffffffffffffffffffffffffffffffffffff16815260200190815260200160002060010160008282546102899190611085565b925050819055505050565b806000808473ffffffffffffffffffffffffffffffffffffffff1673ffffffffffffffffffffffffffffffffffffffff16815260200190815260200160002060010160008282546102e591906110b9565b925050819055505050565b6002818154811061030057600080fd5b906000526020600020016000915054906101000a900473ffffffffffffffffffffffffffffffffffffffff1681565b60006040518060400160405280600981526020017f5265717565737465720000000000000000000000000000000000000000000000815250805190602001206000808473ffffffffffffffffffffffffffffffffffffffff1673ffffffffffffffffffffffffffffffffffffffff1681526020019081526020016000206000016040516103bc91906111f0565b6040518091039020149050919050565b60006020528060005260406000206000915090508060000180546103ef9061111c565b80601f016020809104026020016040519081016040528092919081815260200182805461041b9061111c565b80156104685780601f1061043d57610100808354040283529160200191610468565b820191906000526020600020905b81548152906001019060200180831161044b57829003601f168201915b5050505050908060010154905082565b6001818154811061048857600080fd5b906000526020600020016000915054906101000a900473ffffffffffffffffffffffffffffffffffffffff1681565b6000806000808473ffffffffffffffffffffffffffffffffffffffff1673ffffffffffffffffffffffffffffffffffffffff16815260200190815260200160002060000180546105069061111c565b905014610548576040517f08c379a000000000000000000000000000000000000000000000000000000000815260040161053f90611253565b60405180910390fd5b6040518060400160405280600681526020017f576f726b657200000000000000000000000000000000000000000000000000008152508051906020012084805190602001201415806105a257506105a0826002610a99565b155b6105e1576040517f08c379a00000000000000000000000000000000000000000000000000000000081526004016105d8906112bf565b60405180910390fd5b6040518060400160405280600981526020017f526571756573746572000000000000000000000000000000000000000000000081525080519060200120848051906020012014158061063b5750610639826001610a99565b155b61067a576040517f08c379a00000000000000000000000000000000000000000000000000000000081526004016106719061132b565b60405180910390fd5b6040518060400160405280858152602001848152506000808473ffffffffffffffffffffffffffffffffffffffff1673ffffffffffffffffffffffffffffffffffffffff16815260200190815260200160002060008201518160000190816106e291906114f7565b50602082015181600101559050508173ffffffffffffffffffffffffffffffffffffffff167f89105a1c6a3c2fbd471255c66a31ccab604af5697f67d7e2e9a0028c5e4dbd918585604051610738929190610d87565b60405180910390a26040518060400160405280600981526020017f526571756573746572000000000000000000000000000000000000000000000081525080519060200120848051906020012003610835576001829080600181540180825580915050600190039060005260206000200160009091909190916101000a81548173ffffffffffffffffffffffffffffffffffffffff021916908373ffffffffffffffffffffffffffffffffffffffff1602179055508173ffffffffffffffffffffffffffffffffffffffff167f1616bf4c0898e95cbe6407827ef9ba6f5887a571df69e07eeda76b2b2a4f7daf60405160405180910390a2610927565b6040518060400160405280600681526020017f576f726b6572000000000000000000000000000000000000000000000000000081525080519060200120848051906020012003610926576002829080600181540180825580915050600190039060005260206000200160009091909190916101000a81548173ffffffffffffffffffffffffffffffffffffffff021916908373ffffffffffffffffffffffffffffffffffffffff1602179055508173ffffffffffffffffffffffffffffffffffffffff167fb10d2a24a8c3686841e966f0c2c64c385cfaecb50a09b16aa3579bfcf3989dcd60405160405180910390a25b5b600190509392505050565b606060028054806020026020016040519081016040528092919081815260200182805480156109b657602002820191906000526020600020905b8160009054906101000a900473ffffffffffffffffffffffffffffffffffffffff1673ffffffffffffffffffffffffffffffffffffffff168152602001906001019080831161096c575b5050505050905090565b60606001805480602002602001604051908101604052809291908181526020018280548015610a4457602002820191906000526020600020905b8160009054906101000a900473ffffffffffffffffffffffffffffffffffffffff1673ffffffffffffffffffffffffffffffffffffffff16815260200190600101908083116109fa575b5050505050905090565b60008060008373ffffffffffffffffffffffffffffffffffffffff1673ffffffffffffffffffffffffffffffffffffffff168152602001908152602001600020600101549050919050565b600080600090505b8280549050811015610b3a578373ffffffffffffffffffffffffffffffffffffffff16838281548110610ad757610ad66115c9565b5b9060005260206000200160009054906101000a900473ffffffffffffffffffffffffffffffffffffffff1673ffffffffffffffffffffffffffffffffffffffff1603610b27576001915050610b40565b8080610b32906115f8565b915050610aa1565b50600090505b92915050565b6000604051905090565b600080fd5b600080fd5b600073ffffffffffffffffffffffffffffffffffffffff82169050919050565b6000610b8582610b5a565b9050919050565b610b9581610b7a565b8114610ba057600080fd5b50565b600081359050610bb281610b8c565b92915050565b6000819050919050565b610bcb81610bb8565b8114610bd657600080fd5b50565b600081359050610be881610bc2565b92915050565b60008060408385031215610c0557610c04610b50565b5b6000610c1385828601610ba3565b9250506020610c2485828601610bd9565b9150509250929050565b600060208284031215610c4457610c43610b50565b5b6000610c5284828501610bd9565b91505092915050565b610c6481610b7a565b82525050565b6000602082019050610c7f6000830184610c5b565b92915050565b600060208284031215610c9b57610c9a610b50565b5b6000610ca984828501610ba3565b91505092915050565b60008115159050919050565b610cc781610cb2565b82525050565b6000602082019050610ce26000830184610cbe565b92915050565b600081519050919050565b600082825260208201905092915050565b60005b83811015610d22578082015181840152602081019050610d07565b60008484015250505050565b6000601f19601f8301169050919050565b6000610d4a82610ce8565b610d548185610cf3565b9350610d64818560208601610d04565b610d6d81610d2e565b840191505092915050565b610d8181610bb8565b82525050565b60006040820190508181036000830152610da18185610d3f565b9050610db06020830184610d78565b9392505050565b600080fd5b600080fd5b7f4e487b7100000000000000000000000000000000000000000000000000000000600052604160045260246000fd5b610df982610d2e565b810181811067ffffffffffffffff82111715610e1857610e17610dc1565b5b80604052505050565b6000610e2b610b46565b9050610e378282610df0565b919050565b600067ffffffffffffffff821115610e5757610e56610dc1565b5b610e6082610d2e565b9050602081019050919050565b82818337600083830152505050565b6000610e8f610e8a84610e3c565b610e21565b905082815260208101848484011115610eab57610eaa610dbc565b5b610eb6848285610e6d565b509392505050565b600082601f830112610ed357610ed2610db7565b5b8135610ee3848260208601610e7c565b91505092915050565b600080600060608486031215610f0557610f04610b50565b5b600084013567ffffffffffffffff811115610f2357610f22610b55565b5b610f2f86828701610ebe565b9350506020610f4086828701610bd9565b9250506040610f5186828701610ba3565b9150509250925092565b600081519050919050565b600082825260208201905092915050565b6000819050602082019050919050565b610f9081610b7a565b82525050565b6000610fa28383610f87565b60208301905092915050565b6000602082019050919050565b6000610fc682610f5b565b610fd08185610f66565b9350610fdb83610f77565b8060005b8381101561100c578151610ff38882610f96565b9750610ffe83610fae565b925050600181019050610fdf565b5085935050505092915050565b600060208201905081810360008301526110338184610fbb565b905092915050565b60006020820190506110506000830184610d78565b92915050565b7f4e487b7100000000000000000000000000000000000000000000000000000000600052601160045260246000fd5b600061109082610bb8565b915061109b83610bb8565b92508282039050818111156110b3576110b2611056565b5b92915050565b60006110c482610bb8565b91506110cf83610bb8565b92508282019050808211156110e7576110e6611056565b5b92915050565b7f4e487b7100000000000000000000000000000000000000000000000000000000600052602260045260246000fd5b6000600282049050600182168061113457607f821691505b602082108103611147576111466110ed565b5b50919050565b600081905092915050565b60008190508160005260206000209050919050565b6000815461117a8161111c565b611184818661114d565b9450600182166000811461119f57600181146111b4576111e7565b60ff19831686528115158202860193506111e7565b6111bd85611158565b60005b838110156111df578154818901526001820191506020810190506111c0565b838801955050505b50505092915050565b60006111fc828461116d565b915081905092915050565b7f5573657220616c72656164792072656769737465726564000000000000000000600082015250565b600061123d601783610cf3565b915061124882611207565b602082019050919050565b6000602082019050818103600083015261126c81611230565b9050919050565b7f576f726b657220616c7265616479207265676973746572656400000000000000600082015250565b60006112a9601983610cf3565b91506112b482611273565b602082019050919050565b600060208201905081810360008301526112d88161129c565b9050919050565b7f52657175657374657220616c7265616479207265676973746572656400000000600082015250565b6000611315601c83610cf3565b9150611320826112df565b602082019050919050565b6000602082019050818103600083015261134481611308565b9050919050565b60008190508160005260206000209050919050565b60006020601f8301049050919050565b600082821b905092915050565b6000600883026113ad7fffffffffffffffffffffffffffffffffffffffffffffffffffffffffffffffff82611370565b6113b78683611370565b95508019841693508086168417925050509392505050565b6000819050919050565b60006113f46113ef6113ea84610bb8565b6113cf565b610bb8565b9050919050565b6000819050919050565b61140e836113d9565b61142261141a826113fb565b84845461137d565b825550505050565b600090565b61143761142a565b611442818484611405565b505050565b5b818110156114665761145b60008261142f565b600181019050611448565b5050565b601f8211156114ab5761147c8161134b565b61148584611360565b81016020851015611494578190505b6114a86114a085611360565b830182611447565b50505b505050565b600082821c905092915050565b60006114ce600019846008026114b0565b1980831691505092915050565b60006114e783836114bd565b9150826002028217905092915050565b61150082610ce8565b67ffffffffffffffff81111561151957611518610dc1565b5b611523825461111c565b61152e82828561146a565b600060209050601f831160018114611561576000841561154f578287015190505b61155985826114db565b8655506115c1565b601f19841661156f8661134b565b60005b8281101561159757848901518255600182019150602085019450602081019050611572565b868310156115b457848901516115b0601f8916826114bd565b8355505b6001600288020188555050505b505050505050565b7f4e487b7100000000000000000000000000000000000000000000000000000000600052603260045260246000fd5b600061160382610bb8565b91507fffffffffffffffffffffffffffffffffffffffffffffffffffffffffffffffff820361163557611634611056565b5b60018201905091905056fea2646970667358221220752ad442a2e426ab8c659f8c5109186a1439f924521a901bb14761b951941f8664736f6c63430008110033",
  "immutableReferences": {},
  "source": "// SPDX-License-Identifier: MIT\npragma solidity >=0.4.22 <0.9.0;\n\ncontract UserRegistrationContract {\n    // Structure pour reprsenter un utilisateur\n    struct User {\n        string profile; // Profil de l'utilisateur (Requester ou Worker)\n        uint256 points;\n    }\n\n    // Mapping pour associer une adresse Ethereum  un utilisateur\n    mapping(address => User) public users;\n\n    // Ensembles pour les adresses des Requesters et Workers\n    address[] public requesterPool;\n    address[] public workerPool;\n\n    // vnements pour signaler l'enregistrement d'un utilisateur\n    event UserRegistered(address indexed user, string profile, uint256 points);\n    // vnements pour signaler l'ajout d'un utilisateur au pool\n    event RequesterAdded(address indexed requester);\n    event WorkerAdded(address indexed worker);\n\n    // Fonction d'enregistrement d'un nouvel utilisateur\n    function addUser(string memory profile, uint256 points, address userId) public returns (bool) {\n        // Vrifiez si l'utilisateur est dj enregistr\n        require(bytes(users[userId].profile).length == 0, \"User already registered\");\n\n        // Vrifiez si l'adresse n'est pas dj dans le pool \n        require(keccak256(bytes(profile)) != keccak256(bytes(\"Worker\")) || !isAddressInArray(userId, workerPool), \"Worker already registered\");\n        require(keccak256(bytes(profile)) != keccak256(bytes(\"Requester\")) || !isAddressInArray(userId, requesterPool), \"Requester already registered\");\n\n        // Initialiser l'utilisateur avec ses donnes\n        users[userId] = User({\n            profile: profile,\n            points: points\n        });\n\n        // mettre un vnement pour signaler l'enregistrement de l'utilisateur\n        emit UserRegistered(userId, profile, points);\n\n        // Ajouter l'adresse de l'utilisateur au pool appropri\n        if (keccak256(bytes(profile)) == keccak256(bytes(\"Requester\"))) {\n            requesterPool.push(userId);\n            emit RequesterAdded(userId);\n        } else if (keccak256(bytes(profile)) == keccak256(bytes(\"Worker\"))) {\n            workerPool.push(userId);\n            emit WorkerAdded(userId);\n        }\n\n        // Retourner vrai pour indiquer un enregistrement russi\n        return true;\n    }\n\n    // Fonction pour vrifier si une adresse existe dans un tableau\n    function isAddressInArray(address _address, address[] storage _array) internal view returns (bool) {\n        for (uint256 i = 0; i < _array.length; i++) {\n            if (_array[i] == _address) {\n                return true;\n            }\n        }\n        return false;\n    }\n\n    // Fonctions pour rcuprer les adresses des Requesters et Workers\n    function getRequesters() public view returns (address[] memory) {\n        return requesterPool;\n    }\n\n    function getWorkers() public view returns (address[] memory) {\n        return workerPool;\n    }\n\n    function isRequesterRegistered(address requesterAddress) public view returns (bool) {\n        return keccak256(bytes(users[requesterAddress].profile)) == keccak256(bytes(\"Requester\"));\n    }\n\n    function getPoints(address userAddress) public view returns (uint256) {\n        return users[userAddress].points;\n    }\n\n    function addPoints(address userAddress, uint256 pointsToAdd) public {\n        users[userAddress].points += pointsToAdd;\n    }\n\n    function subtractPoints(address userAddress, uint256 pointsToSubtract) public {\n        users[userAddress].points -= pointsToSubtract;\n    }\n}",
  "sourcePath": "C:\\Users\\USER\\OneDrive\\Documents\\ensias\\projet_federateur\\Project\\contracts\\UserRegistrationContract.sol",
  "compiler": {
    "name": "solc",
    "version": "0.8.17+commit.8df45f5f.Emscripten.clang"
  },
  "schemaVersion": "3.4.16",
  "updatedAt": "2024-01-31T11:33:14.177Z",
  "networkType": "ethereum",
  "devdoc": {
    "kind": "dev",
    "methods": {},
    "version": 1
  },
  "userdoc": {
    "kind": "user",
    "methods": {},
    "version": 1
  }
}